{
  "_format": "hh-sol-artifact-1",
  "contractName": "Transact",
  "sourceName": "contracts/Transact.sol",
  "abi": [
    {
      "inputs": [],
      "name": "increment",
      "outputs": [],
      "stateMutability": "nonpayable",
      "type": "function"
    }
  ],
  "bytecode": "0x60806040526000805534801561001457600080fd5b5061010c806100246000396000f3fe6080604052348015600f57600080fd5b506004361060285760003560e01c8063d09de08a14602d575b600080fd5b60336035565b005b6001600080828254604591906087565b92505081905550565b6000819050919050565b7f4e487b7100000000000000000000000000000000000000000000000000000000600052601160045260246000fd5b6000609082604e565b9150609983604e565b9250827fffffffffffffffffffffffffffffffffffffffffffffffffffffffffffffffff0382111560cb5760ca6058565b5b82820190509291505056fea264697066735822122076e956a37f9e9f472ed4b24d1728abd0394a0e4ade9ef5ce1d07d642d9d9089564736f6c63430008090033",
  "linkReferences": {},
  "deployedLinkReferences": {}
}