{
  "_format": "hh-sol-artifact-1",
  "contractName": "Warranty",
  "sourceName": "contracts/Warranty.sol",
  "abi": [
    {
      "inputs": [],
      "stateMutability": "nonpayable",
      "type": "constructor"
    },
    {
      "anonymous": false,
      "inputs": [
        {
          "indexed": true,
          "internalType": "address",
          "name": "owner",
          "type": "address"
        },
        {
          "indexed": true,
          "internalType": "address",
          "name": "approved",
          "type": "address"
        },
        {
          "indexed": true,
          "internalType": "uint256",
          "name": "tokenId",
          "type": "uint256"
        }
      ],
      "name": "Approval",
      "type": "event"
    },
    {
      "anonymous": false,
      "inputs": [
        {
          "indexed": true,
          "internalType": "address",
          "name": "owner",
          "type": "address"
        },
        {
          "indexed": true,
          "internalType": "address",
          "name": "operator",
          "type": "address"
        },
        {
          "indexed": false,
          "internalType": "bool",
          "name": "approved",
          "type": "bool"
        }
      ],
      "name": "ApprovalForAll",
      "type": "event"
    },
    {
      "anonymous": false,
      "inputs": [
        {
          "indexed": true,
          "internalType": "address",
          "name": "previousOwner",
          "type": "address"
        },
        {
          "indexed": true,
          "internalType": "address",
          "name": "newOwner",
          "type": "address"
        }
      ],
      "name": "OwnershipTransferred",
      "type": "event"
    },
    {
      "anonymous": false,
      "inputs": [
        {
          "indexed": true,
          "internalType": "address",
          "name": "from",
          "type": "address"
        },
        {
          "indexed": true,
          "internalType": "address",
          "name": "to",
          "type": "address"
        },
        {
          "indexed": true,
          "internalType": "uint256",
          "name": "tokenId",
          "type": "uint256"
        }
      ],
      "name": "Transfer",
      "type": "event"
    },
    {
      "inputs": [
        {
          "internalType": "address",
          "name": "to",
          "type": "address"
        },
        {
          "internalType": "uint256",
          "name": "tokenId",
          "type": "uint256"
        }
      ],
      "name": "approve",
      "outputs": [],
      "stateMutability": "nonpayable",
      "type": "function"
    },
    {
      "inputs": [
        {
          "internalType": "address",
          "name": "owner",
          "type": "address"
        }
      ],
      "name": "balanceOf",
      "outputs": [
        {
          "internalType": "uint256",
          "name": "",
          "type": "uint256"
        }
      ],
      "stateMutability": "view",
      "type": "function"
    },
    {
      "inputs": [
        {
          "internalType": "uint256",
          "name": "tokenId",
          "type": "uint256"
        }
      ],
      "name": "getApproved",
      "outputs": [
        {
          "internalType": "address",
          "name": "",
          "type": "address"
        }
      ],
      "stateMutability": "view",
      "type": "function"
    },
    {
      "inputs": [
        {
          "internalType": "address",
          "name": "owner",
          "type": "address"
        },
        {
          "internalType": "address",
          "name": "operator",
          "type": "address"
        }
      ],
      "name": "isApprovedForAll",
      "outputs": [
        {
          "internalType": "bool",
          "name": "",
          "type": "bool"
        }
      ],
      "stateMutability": "view",
      "type": "function"
    },
    {
      "inputs": [
        {
          "internalType": "string",
          "name": "uri",
          "type": "string"
        }
      ],
      "name": "isContentOwned",
      "outputs": [
        {
          "internalType": "bool",
          "name": "",
          "type": "bool"
        }
      ],
      "stateMutability": "view",
      "type": "function"
    },
    {
      "inputs": [],
      "name": "name",
      "outputs": [
        {
          "internalType": "string",
          "name": "",
          "type": "string"
        }
      ],
      "stateMutability": "view",
      "type": "function"
    },
    {
      "inputs": [],
      "name": "owner",
      "outputs": [
        {
          "internalType": "address",
          "name": "",
          "type": "address"
        }
      ],
      "stateMutability": "view",
      "type": "function"
    },
    {
      "inputs": [
        {
          "internalType": "uint256",
          "name": "tokenId",
          "type": "uint256"
        }
      ],
      "name": "ownerOf",
      "outputs": [
        {
          "internalType": "address",
          "name": "",
          "type": "address"
        }
      ],
      "stateMutability": "view",
      "type": "function"
    },
    {
      "inputs": [
        {
          "internalType": "address",
          "name": "recipient",
          "type": "address"
        },
        {
          "internalType": "string",
          "name": "metadataURI",
          "type": "string"
        }
      ],
      "name": "payToMint",
      "outputs": [
        {
          "internalType": "uint256",
          "name": "",
          "type": "uint256"
        }
      ],
      "stateMutability": "payable",
      "type": "function"
    },
    {
      "inputs": [],
      "name": "renounceOwnership",
      "outputs": [],
      "stateMutability": "nonpayable",
      "type": "function"
    },
    {
      "inputs": [
        {
          "internalType": "address",
          "name": "to",
          "type": "address"
        },
        {
          "internalType": "string",
          "name": "uri",
          "type": "string"
        }
      ],
      "name": "safeMint",
      "outputs": [],
      "stateMutability": "nonpayable",
      "type": "function"
    },
    {
      "inputs": [
        {
          "internalType": "address",
          "name": "from",
          "type": "address"
        },
        {
          "internalType": "address",
          "name": "to",
          "type": "address"
        },
        {
          "internalType": "uint256",
          "name": "tokenId",
          "type": "uint256"
        }
      ],
      "name": "safeTransferFrom",
      "outputs": [],
      "stateMutability": "nonpayable",
      "type": "function"
    },
    {
      "inputs": [
        {
          "internalType": "address",
          "name": "from",
          "type": "address"
        },
        {
          "internalType": "address",
          "name": "to",
          "type": "address"
        },
        {
          "internalType": "uint256",
          "name": "tokenId",
          "type": "uint256"
        },
        {
          "internalType": "bytes",
          "name": "data",
          "type": "bytes"
        }
      ],
      "name": "safeTransferFrom",
      "outputs": [],
      "stateMutability": "nonpayable",
      "type": "function"
    },
    {
      "inputs": [
        {
          "internalType": "address",
          "name": "operator",
          "type": "address"
        },
        {
          "internalType": "bool",
          "name": "approved",
          "type": "bool"
        }
      ],
      "name": "setApprovalForAll",
      "outputs": [],
      "stateMutability": "nonpayable",
      "type": "function"
    },
    {
      "inputs": [
        {
          "internalType": "bytes4",
          "name": "interfaceId",
          "type": "bytes4"
        }
      ],
      "name": "supportsInterface",
      "outputs": [
        {
          "internalType": "bool",
          "name": "",
          "type": "bool"
        }
      ],
      "stateMutability": "view",
      "type": "function"
    },
    {
      "inputs": [],
      "name": "symbol",
      "outputs": [
        {
          "internalType": "string",
          "name": "",
          "type": "string"
        }
      ],
      "stateMutability": "view",
      "type": "function"
    },
    {
      "inputs": [
        {
          "internalType": "uint256",
          "name": "tokenId",
          "type": "uint256"
        }
      ],
      "name": "tokenURI",
      "outputs": [
        {
          "internalType": "string",
          "name": "",
          "type": "string"
        }
      ],
      "stateMutability": "view",
      "type": "function"
    },
    {
      "inputs": [
        {
          "internalType": "address",
          "name": "from",
          "type": "address"
        },
        {
          "internalType": "address",
          "name": "to",
          "type": "address"
        },
        {
          "internalType": "uint256",
          "name": "tokenId",
          "type": "uint256"
        }
      ],
      "name": "transferFrom",
      "outputs": [],
      "stateMutability": "nonpayable",
      "type": "function"
    },
    {
      "inputs": [
        {
          "internalType": "address",
          "name": "newOwner",
          "type": "address"
        }
      ],
      "name": "transferOwnership",
      "outputs": [],
      "stateMutability": "nonpayable",
      "type": "function"
    }
  ],
  "bytecode": "0x60806040523480156200001157600080fd5b506040518060400160405280600881526020017f57617272616e74790000000000000000000000000000000000000000000000008152506040518060400160405280600381526020017f57524e0000000000000000000000000000000000000000000000000000000000815250816000908051906020019062000096929190620001a6565b508060019080519060200190620000af929190620001a6565b505050620000d2620000c6620000d860201b60201c565b620000e060201b60201c565b620002bb565b600033905090565b6000600760009054906101000a900473ffffffffffffffffffffffffffffffffffffffff16905081600760006101000a81548173ffffffffffffffffffffffffffffffffffffffff021916908373ffffffffffffffffffffffffffffffffffffffff1602179055508173ffffffffffffffffffffffffffffffffffffffff168173ffffffffffffffffffffffffffffffffffffffff167f8be0079c531659141344cd1fd0a4f28419497f9722a3daafe3b4186f6b6457e060405160405180910390a35050565b828054620001b49062000256565b90600052602060002090601f016020900481019282620001d8576000855562000224565b82601f10620001f357805160ff191683800117855562000224565b8280016001018555821562000224579182015b828111156200022357825182559160200191906001019062000206565b5b50905062000233919062000237565b5090565b5b808211156200025257600081600090555060010162000238565b5090565b600060028204905060018216806200026f57607f821691505b602082108114156200028657620002856200028c565b5b50919050565b7f4e487b7100000000000000000000000000000000000000000000000000000000600052602260045260246000fd5b61306280620002cb6000396000f3fe6080604052600436106101145760003560e01c8063715018a6116100a0578063b88d4fde11610064578063b88d4fde146103b6578063c87b56dd146103df578063d204c45e1461041c578063e985e9c514610445578063f2fde38b1461048257610114565b8063715018a6146102e35780638da5cb5b146102fa57806395d89b41146103255780639f1cabc614610350578063a22cb4651461038d57610114565b806323b872dd116100e757806323b872dd146101e757806342842e0e14610210578063615fd9e2146102395780636352211e1461026957806370a08231146102a657610114565b806301ffc9a71461011957806306fdde0314610156578063081812fc14610181578063095ea7b3146101be575b600080fd5b34801561012557600080fd5b50610140600480360381019061013b919061214f565b6104ab565b60405161014d91906125ad565b60405180910390f35b34801561016257600080fd5b5061016b61058d565b60405161017891906125c8565b60405180910390f35b34801561018d57600080fd5b506101a860048036038101906101a391906121e2565b61061f565b6040516101b59190612546565b60405180910390f35b3480156101ca57600080fd5b506101e560048036038101906101e09190612113565b610665565b005b3480156101f357600080fd5b5061020e60048036038101906102099190611fb9565b61077d565b005b34801561021c57600080fd5b5061023760048036038101906102329190611fb9565b6107dd565b005b610253600480360381019061024e91906120bf565b6107fd565b60405161026091906127ea565b60405180910390f35b34801561027557600080fd5b50610290600480360381019061028b91906121e2565b610929565b60405161029d9190612546565b60405180910390f35b3480156102b257600080fd5b506102cd60048036038101906102c89190611f54565b6109db565b6040516102da91906127ea565b60405180910390f35b3480156102ef57600080fd5b506102f8610a93565b005b34801561030657600080fd5b5061030f610aa7565b60405161031c9190612546565b60405180910390f35b34801561033157600080fd5b5061033a610ad1565b60405161034791906125c8565b60405180910390f35b34801561035c57600080fd5b50610377600480360381019061037291906121a1565b610b63565b60405161038491906125ad565b60405180910390f35b34801561039957600080fd5b506103b460048036038101906103af9190612083565b610b9e565b005b3480156103c257600080fd5b506103dd60048036038101906103d89190612008565b610bb4565b005b3480156103eb57600080fd5b50610406600480360381019061040191906121e2565b610c16565b60405161041391906125c8565b60405180910390f35b34801561042857600080fd5b50610443600480360381019061043e91906120bf565b610c28565b005b34801561045157600080fd5b5061046c60048036038101906104679190611f7d565b610c61565b60405161047991906125ad565b60405180910390f35b34801561048e57600080fd5b506104a960048036038101906104a49190611f54565b610cf5565b005b60007f80ac58cd000000000000000000000000000000000000000000000000000000007bffffffffffffffffffffffffffffffffffffffffffffffffffffffff1916827bffffffffffffffffffffffffffffffffffffffffffffffffffffffff1916148061057657507f5b5e139f000000000000000000000000000000000000000000000000000000007bffffffffffffffffffffffffffffffffffffffffffffffffffffffff1916827bffffffffffffffffffffffffffffffffffffffffffffffffffffffff1916145b80610586575061058582610d79565b5b9050919050565b60606000805461059c90612a40565b80601f01602080910402602001604051908101604052809291908181526020018280546105c890612a40565b80156106155780601f106105ea57610100808354040283529160200191610615565b820191906000526020600020905b8154815290600101906020018083116105f857829003601f168201915b5050505050905090565b600061062a82610de3565b6004600083815260200190815260200160002060009054906101000a900473ffffffffffffffffffffffffffffffffffffffff169050919050565b600061067082610929565b90508073ffffffffffffffffffffffffffffffffffffffff168373ffffffffffffffffffffffffffffffffffffffff1614156106e1576040517f08c379a00000000000000000000000000000000000000000000000000000000081526004016106d89061276a565b60405180910390fd5b8073ffffffffffffffffffffffffffffffffffffffff16610700610e2e565b73ffffffffffffffffffffffffffffffffffffffff16148061072f575061072e81610729610e2e565b610c61565b5b61076e576040517f08c379a0000000000000000000000000000000000000000000000000000000008152600401610765906126ea565b60405180910390fd5b6107788383610e36565b505050565b61078e610788610e2e565b82610eef565b6107cd576040517f08c379a00000000000000000000000000000000000000000000000000000000081526004016107c4906127aa565b60405180910390fd5b6107d8838383610f84565b505050565b6107f883838360405180602001604052806000815250610bb4565b505050565b60006001600983604051610811919061250b565b908152602001604051809103902060009054906101000a900460ff1660ff161415610871576040517f08c379a00000000000000000000000000000000000000000000000000000000081526004016108689061278a565b60405180910390fd5b662386f26fc100003410156108bb576040517f08c379a00000000000000000000000000000000000000000000000000000000081526004016108b2906127ca565b60405180910390fd5b60006108c760086111eb565b90506108d360086111f9565b60016009846040516108e5919061250b565b908152602001604051809103902060006101000a81548160ff021916908360ff160217905550610915848261120f565b61091f81846113e9565b8091505092915050565b6000806002600084815260200190815260200160002060009054906101000a900473ffffffffffffffffffffffffffffffffffffffff169050600073ffffffffffffffffffffffffffffffffffffffff168173ffffffffffffffffffffffffffffffffffffffff1614156109d2576040517f08c379a00000000000000000000000000000000000000000000000000000000081526004016109c99061274a565b60405180910390fd5b80915050919050565b60008073ffffffffffffffffffffffffffffffffffffffff168273ffffffffffffffffffffffffffffffffffffffff161415610a4c576040517f08c379a0000000000000000000000000000000000000000000000000000000008152600401610a43906126aa565b60405180910390fd5b600360008373ffffffffffffffffffffffffffffffffffffffff1673ffffffffffffffffffffffffffffffffffffffff168152602001908152602001600020549050919050565b610a9b61145d565b610aa560006114db565b565b6000600760009054906101000a900473ffffffffffffffffffffffffffffffffffffffff16905090565b606060018054610ae090612a40565b80601f0160208091040260200160405190810160405280929190818152602001828054610b0c90612a40565b8015610b595780601f10610b2e57610100808354040283529160200191610b59565b820191906000526020600020905b815481529060010190602001808311610b3c57829003601f168201915b5050505050905090565b60006001600983604051610b77919061250b565b908152602001604051809103902060009054906101000a900460ff1660ff16149050919050565b610bb0610ba9610e2e565b83836115a1565b5050565b610bc5610bbf610e2e565b83610eef565b610c04576040517f08c379a0000000000000000000000000000000000000000000000000000000008152600401610bfb906127aa565b60405180910390fd5b610c108484848461170e565b50505050565b6060610c218261176a565b9050919050565b610c3061145d565b6000610c3c60086111eb565b9050610c4860086111f9565b610c52838261187d565b610c5c81836113e9565b505050565b6000600560008473ffffffffffffffffffffffffffffffffffffffff1673ffffffffffffffffffffffffffffffffffffffff16815260200190815260200160002060008373ffffffffffffffffffffffffffffffffffffffff1673ffffffffffffffffffffffffffffffffffffffff16815260200190815260200160002060009054906101000a900460ff16905092915050565b610cfd61145d565b600073ffffffffffffffffffffffffffffffffffffffff168173ffffffffffffffffffffffffffffffffffffffff161415610d6d576040517f08c379a0000000000000000000000000000000000000000000000000000000008152600401610d649061260a565b60405180910390fd5b610d76816114db565b50565b60007f01ffc9a7000000000000000000000000000000000000000000000000000000007bffffffffffffffffffffffffffffffffffffffffffffffffffffffff1916827bffffffffffffffffffffffffffffffffffffffffffffffffffffffff1916149050919050565b610dec8161189b565b610e2b576040517f08c379a0000000000000000000000000000000000000000000000000000000008152600401610e229061274a565b60405180910390fd5b50565b600033905090565b816004600083815260200190815260200160002060006101000a81548173ffffffffffffffffffffffffffffffffffffffff021916908373ffffffffffffffffffffffffffffffffffffffff160217905550808273ffffffffffffffffffffffffffffffffffffffff16610ea983610929565b73ffffffffffffffffffffffffffffffffffffffff167f8c5be1e5ebec7d5bd14f71427d1e84f3dd0314c0f7b2291e5b200ac8c7c3b92560405160405180910390a45050565b600080610efb83610929565b90508073ffffffffffffffffffffffffffffffffffffffff168473ffffffffffffffffffffffffffffffffffffffff161480610f3d5750610f3c8185610c61565b5b80610f7b57508373ffffffffffffffffffffffffffffffffffffffff16610f638461061f565b73ffffffffffffffffffffffffffffffffffffffff16145b91505092915050565b8273ffffffffffffffffffffffffffffffffffffffff16610fa482610929565b73ffffffffffffffffffffffffffffffffffffffff1614610ffa576040517f08c379a0000000000000000000000000000000000000000000000000000000008152600401610ff19061262a565b60405180910390fd5b600073ffffffffffffffffffffffffffffffffffffffff168273ffffffffffffffffffffffffffffffffffffffff16141561106a576040517f08c379a00000000000000000000000000000000000000000000000000000000081526004016110619061266a565b60405180910390fd5b611075838383611907565b611080600082610e36565b6001600360008573ffffffffffffffffffffffffffffffffffffffff1673ffffffffffffffffffffffffffffffffffffffff16815260200190815260200160002060008282546110d09190612956565b925050819055506001600360008473ffffffffffffffffffffffffffffffffffffffff1673ffffffffffffffffffffffffffffffffffffffff168152602001908152602001600020600082825461112791906128cf565b92505081905550816002600083815260200190815260200160002060006101000a81548173ffffffffffffffffffffffffffffffffffffffff021916908373ffffffffffffffffffffffffffffffffffffffff160217905550808273ffffffffffffffffffffffffffffffffffffffff168473ffffffffffffffffffffffffffffffffffffffff167fddf252ad1be2c89b69c2b068fc378daa952ba7f163c4a11628f55a4df523b3ef60405160405180910390a46111e683838361190c565b505050565b600081600001549050919050565b6001816000016000828254019250508190555050565b600073ffffffffffffffffffffffffffffffffffffffff168273ffffffffffffffffffffffffffffffffffffffff16141561127f576040517f08c379a00000000000000000000000000000000000000000000000000000000081526004016112769061270a565b60405180910390fd5b6112888161189b565b156112c8576040517f08c379a00000000000000000000000000000000000000000000000000000000081526004016112bf9061264a565b60405180910390fd5b6112d460008383611907565b6001600360008473ffffffffffffffffffffffffffffffffffffffff1673ffffffffffffffffffffffffffffffffffffffff168152602001908152602001600020600082825461132491906128cf565b92505081905550816002600083815260200190815260200160002060006101000a81548173ffffffffffffffffffffffffffffffffffffffff021916908373ffffffffffffffffffffffffffffffffffffffff160217905550808273ffffffffffffffffffffffffffffffffffffffff16600073ffffffffffffffffffffffffffffffffffffffff167fddf252ad1be2c89b69c2b068fc378daa952ba7f163c4a11628f55a4df523b3ef60405160405180910390a46113e56000838361190c565b5050565b6113f28261189b565b611431576040517f08c379a0000000000000000000000000000000000000000000000000000000008152600401611428906126ca565b60405180910390fd5b80600660008481526020019081526020016000209080519060200190611458929190611d78565b505050565b611465610e2e565b73ffffffffffffffffffffffffffffffffffffffff16611483610aa7565b73ffffffffffffffffffffffffffffffffffffffff16146114d9576040517f08c379a00000000000000000000000000000000000000000000000000000000081526004016114d09061272a565b60405180910390fd5b565b6000600760009054906101000a900473ffffffffffffffffffffffffffffffffffffffff16905081600760006101000a81548173ffffffffffffffffffffffffffffffffffffffff021916908373ffffffffffffffffffffffffffffffffffffffff1602179055508173ffffffffffffffffffffffffffffffffffffffff168173ffffffffffffffffffffffffffffffffffffffff167f8be0079c531659141344cd1fd0a4f28419497f9722a3daafe3b4186f6b6457e060405160405180910390a35050565b8173ffffffffffffffffffffffffffffffffffffffff168373ffffffffffffffffffffffffffffffffffffffff161415611610576040517f08c379a00000000000000000000000000000000000000000000000000000000081526004016116079061268a565b60405180910390fd5b80600560008573ffffffffffffffffffffffffffffffffffffffff1673ffffffffffffffffffffffffffffffffffffffff16815260200190815260200160002060008473ffffffffffffffffffffffffffffffffffffffff1673ffffffffffffffffffffffffffffffffffffffff16815260200190815260200160002060006101000a81548160ff0219169083151502179055508173ffffffffffffffffffffffffffffffffffffffff168373ffffffffffffffffffffffffffffffffffffffff167f17307eab39ab6107e8899845ad3d59bd9653f200f220920489ca2b5937696c318360405161170191906125ad565b60405180910390a3505050565b611719848484610f84565b61172584848484611911565b611764576040517f08c379a000000000000000000000000000000000000000000000000000000000815260040161175b906125ea565b60405180910390fd5b50505050565b606061177582610de3565b600060066000848152602001908152602001600020805461179590612a40565b80601f01602080910402602001604051908101604052809291908181526020018280546117c190612a40565b801561180e5780601f106117e35761010080835404028352916020019161180e565b820191906000526020600020905b8154815290600101906020018083116117f157829003601f168201915b50505050509050600061181f611aa8565b9050600081511415611835578192505050611878565b60008251111561186a578082604051602001611852929190612522565b60405160208183030381529060405292505050611878565b61187384611ae5565b925050505b919050565b611897828260405180602001604052806000815250611b4d565b5050565b60008073ffffffffffffffffffffffffffffffffffffffff166002600084815260200190815260200160002060009054906101000a900473ffffffffffffffffffffffffffffffffffffffff1673ffffffffffffffffffffffffffffffffffffffff1614159050919050565b505050565b505050565b60006119328473ffffffffffffffffffffffffffffffffffffffff16611ba8565b15611a9b578373ffffffffffffffffffffffffffffffffffffffff1663150b7a0261195b610e2e565b8786866040518563ffffffff1660e01b815260040161197d9493929190612561565b602060405180830381600087803b15801561199757600080fd5b505af19250505080156119c857506040513d601f19601f820116820180604052508101906119c59190612178565b60015b611a4b573d80600081146119f8576040519150601f19603f3d011682016040523d82523d6000602084013e6119fd565b606091505b50600081511415611a43576040517f08c379a0000000000000000000000000000000000000000000000000000000008152600401611a3a906125ea565b60405180910390fd5b805181602001fd5b63150b7a0260e01b7bffffffffffffffffffffffffffffffffffffffffffffffffffffffff1916817bffffffffffffffffffffffffffffffffffffffffffffffffffffffff191614915050611aa0565b600190505b949350505050565b60606040518060400160405280600781526020017f697066733a2f2f00000000000000000000000000000000000000000000000000815250905090565b6060611af082610de3565b6000611afa611aa8565b90506000815111611b1a5760405180602001604052806000815250611b45565b80611b2484611bcb565b604051602001611b35929190612522565b6040516020818303038152906040525b915050919050565b611b57838361120f565b611b646000848484611911565b611ba3576040517f08c379a0000000000000000000000000000000000000000000000000000000008152600401611b9a906125ea565b60405180910390fd5b505050565b6000808273ffffffffffffffffffffffffffffffffffffffff163b119050919050565b60606000821415611c13576040518060400160405280600181526020017f30000000000000000000000000000000000000000000000000000000000000008152509050611d73565b600082905060005b60008214611c45578080611c2e90612aa3565b915050600a82611c3e9190612925565b9150611c1b565b60008167ffffffffffffffff811115611c87577f4e487b7100000000000000000000000000000000000000000000000000000000600052604160045260246000fd5b6040519080825280601f01601f191660200182016040528015611cb95781602001600182028036833780820191505090505b5090505b60008514611d6c57600182611cd29190612956565b9150600a85611ce19190612aec565b6030611ced91906128cf565b60f81b818381518110611d29577f4e487b7100000000000000000000000000000000000000000000000000000000600052603260045260246000fd5b60200101907effffffffffffffffffffffffffffffffffffffffffffffffffffffffffffff1916908160001a905350600a85611d659190612925565b9450611cbd565b8093505050505b919050565b828054611d8490612a40565b90600052602060002090601f016020900481019282611da65760008555611ded565b82601f10611dbf57805160ff1916838001178555611ded565b82800160010185558215611ded579182015b82811115611dec578251825591602001919060010190611dd1565b5b509050611dfa9190611dfe565b5090565b5b80821115611e17576000816000905550600101611dff565b5090565b6000611e2e611e298461282a565b612805565b905082815260208101848484011115611e4657600080fd5b611e518482856129fe565b509392505050565b6000611e6c611e678461285b565b612805565b905082815260208101848484011115611e8457600080fd5b611e8f8482856129fe565b509392505050565b600081359050611ea681612fd0565b92915050565b600081359050611ebb81612fe7565b92915050565b600081359050611ed081612ffe565b92915050565b600081519050611ee581612ffe565b92915050565b600082601f830112611efc57600080fd5b8135611f0c848260208601611e1b565b91505092915050565b600082601f830112611f2657600080fd5b8135611f36848260208601611e59565b91505092915050565b600081359050611f4e81613015565b92915050565b600060208284031215611f6657600080fd5b6000611f7484828501611e97565b91505092915050565b60008060408385031215611f9057600080fd5b6000611f9e85828601611e97565b9250506020611faf85828601611e97565b9150509250929050565b600080600060608486031215611fce57600080fd5b6000611fdc86828701611e97565b9350506020611fed86828701611e97565b9250506040611ffe86828701611f3f565b9150509250925092565b6000806000806080858703121561201e57600080fd5b600061202c87828801611e97565b945050602061203d87828801611e97565b935050604061204e87828801611f3f565b925050606085013567ffffffffffffffff81111561206b57600080fd5b61207787828801611eeb565b91505092959194509250565b6000806040838503121561209657600080fd5b60006120a485828601611e97565b92505060206120b585828601611eac565b9150509250929050565b600080604083850312156120d257600080fd5b60006120e085828601611e97565b925050602083013567ffffffffffffffff8111156120fd57600080fd5b61210985828601611f15565b9150509250929050565b6000806040838503121561212657600080fd5b600061213485828601611e97565b925050602061214585828601611f3f565b9150509250929050565b60006020828403121561216157600080fd5b600061216f84828501611ec1565b91505092915050565b60006020828403121561218a57600080fd5b600061219884828501611ed6565b91505092915050565b6000602082840312156121b357600080fd5b600082013567ffffffffffffffff8111156121cd57600080fd5b6121d984828501611f15565b91505092915050565b6000602082840312156121f457600080fd5b600061220284828501611f3f565b91505092915050565b6122148161298a565b82525050565b6122238161299c565b82525050565b60006122348261288c565b61223e81856128a2565b935061224e818560208601612a0d565b61225781612bd9565b840191505092915050565b600061226d82612897565b61227781856128b3565b9350612287818560208601612a0d565b61229081612bd9565b840191505092915050565b60006122a682612897565b6122b081856128c4565b93506122c0818560208601612a0d565b80840191505092915050565b60006122d96032836128b3565b91506122e482612bea565b604082019050919050565b60006122fc6026836128b3565b915061230782612c39565b604082019050919050565b600061231f6025836128b3565b915061232a82612c88565b604082019050919050565b6000612342601c836128b3565b915061234d82612cd7565b602082019050919050565b60006123656024836128b3565b915061237082612d00565b604082019050919050565b60006123886019836128b3565b915061239382612d4f565b602082019050919050565b60006123ab6029836128b3565b91506123b682612d78565b604082019050919050565b60006123ce602e836128b3565b91506123d982612dc7565b604082019050919050565b60006123f1603e836128b3565b91506123fc82612e16565b604082019050919050565b60006124146020836128b3565b915061241f82612e65565b602082019050919050565b60006124376020836128b3565b915061244282612e8e565b602082019050919050565b600061245a6018836128b3565b915061246582612eb7565b602082019050919050565b600061247d6021836128b3565b915061248882612ee0565b604082019050919050565b60006124a06013836128b3565b91506124ab82612f2f565b602082019050919050565b60006124c3602e836128b3565b91506124ce82612f58565b604082019050919050565b60006124e6600f836128b3565b91506124f182612fa7565b602082019050919050565b612505816129f4565b82525050565b6000612517828461229b565b915081905092915050565b600061252e828561229b565b915061253a828461229b565b91508190509392505050565b600060208201905061255b600083018461220b565b92915050565b6000608082019050612576600083018761220b565b612583602083018661220b565b61259060408301856124fc565b81810360608301526125a28184612229565b905095945050505050565b60006020820190506125c2600083018461221a565b92915050565b600060208201905081810360008301526125e28184612262565b905092915050565b60006020820190508181036000830152612603816122cc565b9050919050565b60006020820190508181036000830152612623816122ef565b9050919050565b6000602082019050818103600083015261264381612312565b9050919050565b6000602082019050818103600083015261266381612335565b9050919050565b6000602082019050818103600083015261268381612358565b9050919050565b600060208201905081810360008301526126a38161237b565b9050919050565b600060208201905081810360008301526126c38161239e565b9050919050565b600060208201905081810360008301526126e3816123c1565b9050919050565b60006020820190508181036000830152612703816123e4565b9050919050565b6000602082019050818103600083015261272381612407565b9050919050565b600060208201905081810360008301526127438161242a565b9050919050565b600060208201905081810360008301526127638161244d565b9050919050565b6000602082019050818103600083015261278381612470565b9050919050565b600060208201905081810360008301526127a381612493565b9050919050565b600060208201905081810360008301526127c3816124b6565b9050919050565b600060208201905081810360008301526127e3816124d9565b9050919050565b60006020820190506127ff60008301846124fc565b92915050565b600061280f612820565b905061281b8282612a72565b919050565b6000604051905090565b600067ffffffffffffffff82111561284557612844612baa565b5b61284e82612bd9565b9050602081019050919050565b600067ffffffffffffffff82111561287657612875612baa565b5b61287f82612bd9565b9050602081019050919050565b600081519050919050565b600081519050919050565b600082825260208201905092915050565b600082825260208201905092915050565b600081905092915050565b60006128da826129f4565b91506128e5836129f4565b9250827fffffffffffffffffffffffffffffffffffffffffffffffffffffffffffffffff0382111561291a57612919612b1d565b5b828201905092915050565b6000612930826129f4565b915061293b836129f4565b92508261294b5761294a612b4c565b5b828204905092915050565b6000612961826129f4565b915061296c836129f4565b92508282101561297f5761297e612b1d565b5b828203905092915050565b6000612995826129d4565b9050919050565b60008115159050919050565b60007fffffffff0000000000000000000000000000000000000000000000000000000082169050919050565b600073ffffffffffffffffffffffffffffffffffffffff82169050919050565b6000819050919050565b82818337600083830152505050565b60005b83811015612a2b578082015181840152602081019050612a10565b83811115612a3a576000848401525b50505050565b60006002820490506001821680612a5857607f821691505b60208210811415612a6c57612a6b612b7b565b5b50919050565b612a7b82612bd9565b810181811067ffffffffffffffff82111715612a9a57612a99612baa565b5b80604052505050565b6000612aae826129f4565b91507fffffffffffffffffffffffffffffffffffffffffffffffffffffffffffffffff821415612ae157612ae0612b1d565b5b600182019050919050565b6000612af7826129f4565b9150612b02836129f4565b925082612b1257612b11612b4c565b5b828206905092915050565b7f4e487b7100000000000000000000000000000000000000000000000000000000600052601160045260246000fd5b7f4e487b7100000000000000000000000000000000000000000000000000000000600052601260045260246000fd5b7f4e487b7100000000000000000000000000000000000000000000000000000000600052602260045260246000fd5b7f4e487b7100000000000000000000000000000000000000000000000000000000600052604160045260246000fd5b6000601f19601f8301169050919050565b7f4552433732313a207472616e7366657220746f206e6f6e20455243373231526560008201527f63656976657220696d706c656d656e7465720000000000000000000000000000602082015250565b7f4f776e61626c653a206e6577206f776e657220697320746865207a65726f206160008201527f6464726573730000000000000000000000000000000000000000000000000000602082015250565b7f4552433732313a207472616e736665722066726f6d20696e636f72726563742060008201527f6f776e6572000000000000000000000000000000000000000000000000000000602082015250565b7f4552433732313a20746f6b656e20616c7265616479206d696e74656400000000600082015250565b7f4552433732313a207472616e7366657220746f20746865207a65726f2061646460008201527f7265737300000000000000000000000000000000000000000000000000000000602082015250565b7f4552433732313a20617070726f766520746f2063616c6c657200000000000000600082015250565b7f4552433732313a2061646472657373207a65726f206973206e6f74206120766160008201527f6c6964206f776e65720000000000000000000000000000000000000000000000602082015250565b7f45524337323155524953746f726167653a2055524920736574206f66206e6f6e60008201527f6578697374656e7420746f6b656e000000000000000000000000000000000000602082015250565b7f4552433732313a20617070726f76652063616c6c6572206973206e6f7420746f60008201527f6b656e206f776e6572206e6f7220617070726f76656420666f7220616c6c0000602082015250565b7f4552433732313a206d696e7420746f20746865207a65726f2061646472657373600082015250565b7f4f776e61626c653a2063616c6c6572206973206e6f7420746865206f776e6572600082015250565b7f4552433732313a20696e76616c696420746f6b656e2049440000000000000000600082015250565b7f4552433732313a20617070726f76616c20746f2063757272656e74206f776e6560008201527f7200000000000000000000000000000000000000000000000000000000000000602082015250565b7f4e465420616c7265616479206d696e7465642100000000000000000000000000600082015250565b7f4552433732313a2063616c6c6572206973206e6f7420746f6b656e206f776e6560008201527f72206e6f7220617070726f766564000000000000000000000000000000000000602082015250565b7f4e65656420746f20706179207570210000000000000000000000000000000000600082015250565b612fd98161298a565b8114612fe457600080fd5b50565b612ff08161299c565b8114612ffb57600080fd5b50565b613007816129a8565b811461301257600080fd5b50565b61301e816129f4565b811461302957600080fd5b5056fea26469706673582212203f6d9afc9a385074aac0f5bfb2dce56653ec73f57a44bc943118c9b6529a61b664736f6c63430008040033",
  "linkReferences": {},
  "deployedLinkReferences": {}
}